{
  "contractName": "StudentID",
  "abi": [
    {
      "anonymous": false,
      "inputs": [
        {
          "indexed": true,
          "internalType": "address",
          "name": "studentAddress",
          "type": "address"
        },
        {
          "indexed": false,
          "internalType": "string",
          "name": "id",
          "type": "string"
        },
        {
          "indexed": false,
          "internalType": "string",
          "name": "name",
          "type": "string"
        },
        {
          "indexed": false,
          "internalType": "uint256",
          "name": "age",
          "type": "uint256"
        },
        {
          "indexed": false,
          "internalType": "uint256",
          "name": "class_of",
          "type": "uint256"
        },
        {
          "indexed": false,
          "internalType": "string",
          "name": "gender",
          "type": "string"
        }
      ],
      "name": "StudentEnrolled",
      "type": "event"
    },
    {
      "inputs": [
        {
          "internalType": "address",
          "name": "",
          "type": "address"
        }
      ],
      "name": "students",
      "outputs": [
        {
          "internalType": "string",
          "name": "id",
          "type": "string"
        },
        {
          "internalType": "string",
          "name": "name",
          "type": "string"
        },
        {
          "internalType": "uint256",
          "name": "age",
          "type": "uint256"
        },
        {
          "internalType": "uint256",
          "name": "class_of",
          "type": "uint256"
        },
        {
          "internalType": "string",
          "name": "gender",
          "type": "string"
        },
        {
          "internalType": "bool",
          "name": "isEnrolled",
          "type": "bool"
        }
      ],
      "stateMutability": "view",
      "type": "function",
      "constant": true
    },
    {
      "inputs": [
        {
          "internalType": "string",
          "name": "_id",
          "type": "string"
        },
        {
          "internalType": "string",
          "name": "_name",
          "type": "string"
        },
        {
          "internalType": "uint256",
          "name": "_age",
          "type": "uint256"
        },
        {
          "internalType": "uint256",
          "name": "_class_of",
          "type": "uint256"
        },
        {
          "internalType": "string",
          "name": "_gender",
          "type": "string"
        }
      ],
      "name": "enrollStudent",
      "outputs": [],
      "stateMutability": "nonpayable",
      "type": "function"
    },
    {
      "inputs": [
        {
          "internalType": "address",
          "name": "studentAddress",
          "type": "address"
        }
      ],
      "name": "getStudent",
      "outputs": [
        {
          "internalType": "string",
          "name": "",
          "type": "string"
        },
        {
          "internalType": "string",
          "name": "",
          "type": "string"
        },
        {
          "internalType": "uint256",
          "name": "",
          "type": "uint256"
        },
        {
          "internalType": "uint256",
          "name": "",
          "type": "uint256"
        },
        {
          "internalType": "string",
          "name": "",
          "type": "string"
        },
        {
          "internalType": "bool",
          "name": "",
          "type": "bool"
        }
      ],
      "stateMutability": "view",
      "type": "function",
      "constant": true
    },
    {
      "inputs": [
        {
          "internalType": "address",
          "name": "studentAddress",
          "type": "address"
        }
      ],
      "name": "getStudentInfo",
      "outputs": [
        {
          "internalType": "string",
          "name": "",
          "type": "string"
        },
        {
          "internalType": "string",
          "name": "",
          "type": "string"
        },
        {
          "internalType": "uint256",
          "name": "",
          "type": "uint256"
        },
        {
          "internalType": "uint256",
          "name": "",
          "type": "uint256"
        },
        {
          "internalType": "string",
          "name": "",
          "type": "string"
        }
      ],
      "stateMutability": "view",
      "type": "function",
      "constant": true
    }
  ],
  "bytecode": "0x608060405234801561001057600080fd5b506113b2806100206000396000f3fe608060405234801561001057600080fd5b506004361061004c5760003560e01c80634b82caec146100515780636b7b44d714610085578063a6c807a9146100ba578063b132a3e6146100ef575b600080fd5b61006b60048036038101906100669190610c2a565b61010b565b60405161007c959493929190610d09565b60405180910390f35b61009f600480360381019061009a9190610c2a565b6104ab565b6040516100b196959493929190610d8c565b60405180910390f35b6100d460048036038101906100cf9190610c2a565b610804565b6040516100e696959493929190610d8c565b60405180910390f35b61010960048036038101906101049190610f63565b6109e5565b005b60608060008060606000808773ffffffffffffffffffffffffffffffffffffffff1673ffffffffffffffffffffffffffffffffffffffff16815260200190815260200160002060050160009054906101000a900460ff166101ac5760008060405180602001604052806000815250919060405180602001604052806000815250919060405180602001604052806000815250945094509450945094506104a2565b6000808773ffffffffffffffffffffffffffffffffffffffff1673ffffffffffffffffffffffffffffffffffffffff1681526020019081526020016000206000016000808873ffffffffffffffffffffffffffffffffffffffff1673ffffffffffffffffffffffffffffffffffffffff1681526020019081526020016000206001016000808973ffffffffffffffffffffffffffffffffffffffff1673ffffffffffffffffffffffffffffffffffffffff168152602001908152602001600020600201546000808a73ffffffffffffffffffffffffffffffffffffffff1673ffffffffffffffffffffffffffffffffffffffff168152602001908152602001600020600301546000808b73ffffffffffffffffffffffffffffffffffffffff1673ffffffffffffffffffffffffffffffffffffffff1681526020019081526020016000206004018480546102ff90611061565b80601f016020809104026020016040519081016040528092919081815260200182805461032b90611061565b80156103785780601f1061034d57610100808354040283529160200191610378565b820191906000526020600020905b81548152906001019060200180831161035b57829003601f168201915b5050505050945083805461038b90611061565b80601f01602080910402602001604051908101604052809291908181526020018280546103b790611061565b80156104045780601f106103d957610100808354040283529160200191610404565b820191906000526020600020905b8154815290600101906020018083116103e757829003601f168201915b5050505050935080805461041790611061565b80601f016020809104026020016040519081016040528092919081815260200182805461044390611061565b80156104905780601f1061046557610100808354040283529160200191610490565b820191906000526020600020905b81548152906001019060200180831161047357829003601f168201915b50505050509050945094509450945094505b91939590929450565b606080600080606060008060008873ffffffffffffffffffffffffffffffffffffffff1673ffffffffffffffffffffffffffffffffffffffff1681526020019081526020016000206000016000808973ffffffffffffffffffffffffffffffffffffffff1673ffffffffffffffffffffffffffffffffffffffff1681526020019081526020016000206001016000808a73ffffffffffffffffffffffffffffffffffffffff1673ffffffffffffffffffffffffffffffffffffffff168152602001908152602001600020600201546000808b73ffffffffffffffffffffffffffffffffffffffff1673ffffffffffffffffffffffffffffffffffffffff168152602001908152602001600020600301546000808c73ffffffffffffffffffffffffffffffffffffffff1673ffffffffffffffffffffffffffffffffffffffff1681526020019081526020016000206004016000808d73ffffffffffffffffffffffffffffffffffffffff1673ffffffffffffffffffffffffffffffffffffffff16815260200190815260200160002060050160009054906101000a900460ff1685805461065790611061565b80601f016020809104026020016040519081016040528092919081815260200182805461068390611061565b80156106d05780601f106106a5576101008083540402835291602001916106d0565b820191906000526020600020905b8154815290600101906020018083116106b357829003601f168201915b505050505095508480546106e390611061565b80601f016020809104026020016040519081016040528092919081815260200182805461070f90611061565b801561075c5780601f106107315761010080835404028352916020019161075c565b820191906000526020600020905b81548152906001019060200180831161073f57829003601f168201915b5050505050945081805461076f90611061565b80601f016020809104026020016040519081016040528092919081815260200182805461079b90611061565b80156107e85780601f106107bd576101008083540402835291602001916107e8565b820191906000526020600020905b8154815290600101906020018083116107cb57829003601f168201915b5050505050915095509550955095509550955091939550919395565b600060205280600052604060002060009150905080600001805461082790611061565b80601f016020809104026020016040519081016040528092919081815260200182805461085390611061565b80156108a05780601f10610875576101008083540402835291602001916108a0565b820191906000526020600020905b81548152906001019060200180831161088357829003601f168201915b5050505050908060010180546108b590611061565b80601f01602080910402602001604051908101604052809291908181526020018280546108e190611061565b801561092e5780601f106109035761010080835404028352916020019161092e565b820191906000526020600020905b81548152906001019060200180831161091157829003601f168201915b50505050509080600201549080600301549080600401805461094f90611061565b80601f016020809104026020016040519081016040528092919081815260200182805461097b90611061565b80156109c85780601f1061099d576101008083540402835291602001916109c8565b820191906000526020600020905b8154815290600101906020018083116109ab57829003601f168201915b5050505050908060050160009054906101000a900460ff16905086565b6000803373ffffffffffffffffffffffffffffffffffffffff1673ffffffffffffffffffffffffffffffffffffffff16815260200190815260200160002060050160009054906101000a900460ff1615610a74576040517f08c379a0000000000000000000000000000000000000000000000000000000008152600401610a6b906110de565b60405180910390fd5b6040518060c00160405280868152602001858152602001848152602001838152602001828152602001600115158152506000803373ffffffffffffffffffffffffffffffffffffffff1673ffffffffffffffffffffffffffffffffffffffff1681526020019081526020016000206000820151816000019081610af791906112aa565b506020820151816001019081610b0d91906112aa565b5060408201518160020155606082015181600301556080820151816004019081610b3791906112aa565b5060a08201518160050160006101000a81548160ff0219169083151502179055509050503373ffffffffffffffffffffffffffffffffffffffff167f7519fcc0bce008ad319f912ba9ab3ffbe773ae982ac6697496b664f678b7125e8686868686604051610ba9959493929190610d09565b60405180910390a25050505050565b6000604051905090565b600080fd5b600080fd5b600073ffffffffffffffffffffffffffffffffffffffff82169050919050565b6000610bf782610bcc565b9050919050565b610c0781610bec565b8114610c1257600080fd5b50565b600081359050610c2481610bfe565b92915050565b600060208284031215610c4057610c3f610bc2565b5b6000610c4e84828501610c15565b91505092915050565b600081519050919050565b600082825260208201905092915050565b60005b83811015610c91578082015181840152602081019050610c76565b83811115610ca0576000848401525b50505050565b6000601f19601f8301169050919050565b6000610cc282610c57565b610ccc8185610c62565b9350610cdc818560208601610c73565b610ce581610ca6565b840191505092915050565b6000819050919050565b610d0381610cf0565b82525050565b600060a0820190508181036000830152610d238188610cb7565b90508181036020830152610d378187610cb7565b9050610d466040830186610cfa565b610d536060830185610cfa565b8181036080830152610d658184610cb7565b90509695505050505050565b60008115159050919050565b610d8681610d71565b82525050565b600060c0820190508181036000830152610da68189610cb7565b90508181036020830152610dba8188610cb7565b9050610dc96040830187610cfa565b610dd66060830186610cfa565b8181036080830152610de88185610cb7565b9050610df760a0830184610d7d565b979650505050505050565b600080fd5b600080fd5b7f4e487b7100000000000000000000000000000000000000000000000000000000600052604160045260246000fd5b610e4482610ca6565b810181811067ffffffffffffffff82111715610e6357610e62610e0c565b5b80604052505050565b6000610e76610bb8565b9050610e828282610e3b565b919050565b600067ffffffffffffffff821115610ea257610ea1610e0c565b5b610eab82610ca6565b9050602081019050919050565b82818337600083830152505050565b6000610eda610ed584610e87565b610e6c565b905082815260208101848484011115610ef657610ef5610e07565b5b610f01848285610eb8565b509392505050565b600082601f830112610f1e57610f1d610e02565b5b8135610f2e848260208601610ec7565b91505092915050565b610f4081610cf0565b8114610f4b57600080fd5b50565b600081359050610f5d81610f37565b92915050565b600080600080600060a08688031215610f7f57610f7e610bc2565b5b600086013567ffffffffffffffff811115610f9d57610f9c610bc7565b5b610fa988828901610f09565b955050602086013567ffffffffffffffff811115610fca57610fc9610bc7565b5b610fd688828901610f09565b9450506040610fe788828901610f4e565b9350506060610ff888828901610f4e565b925050608086013567ffffffffffffffff81111561101957611018610bc7565b5b61102588828901610f09565b9150509295509295909350565b7f4e487b7100000000000000000000000000000000000000000000000000000000600052602260045260246000fd5b6000600282049050600182168061107957607f821691505b60208210810361108c5761108b611032565b5b50919050565b7f6e6f742e00000000000000000000000000000000000000000000000000000000600082015250565b60006110c8600483610c62565b91506110d382611092565b602082019050919050565b600060208201905081810360008301526110f7816110bb565b9050919050565b60008190508160005260206000209050919050565b60006020601f8301049050919050565b600082821b905092915050565b6000600883026111607fffffffffffffffffffffffffffffffffffffffffffffffffffffffffffffffff82611123565b61116a8683611123565b95508019841693508086168417925050509392505050565b6000819050919050565b60006111a76111a261119d84610cf0565b611182565b610cf0565b9050919050565b6000819050919050565b6111c18361118c565b6111d56111cd826111ae565b848454611130565b825550505050565b600090565b6111ea6111dd565b6111f58184846111b8565b505050565b5b818110156112195761120e6000826111e2565b6001810190506111fb565b5050565b601f82111561125e5761122f816110fe565b61123884611113565b81016020851015611247578190505b61125b61125385611113565b8301826111fa565b50505b505050565b600082821c905092915050565b600061128160001984600802611263565b1980831691505092915050565b600061129a8383611270565b9150826002028217905092915050565b6112b382610c57565b67ffffffffffffffff8111156112cc576112cb610e0c565b5b6112d68254611061565b6112e182828561121d565b600060209050601f8311600181146113145760008415611302578287015190505b61130c858261128e565b865550611374565b601f198416611322866110fe565b60005b8281101561134a57848901518255600182019150602085019450602081019050611325565b868310156113675784890151611363601f891682611270565b8355505b6001600288020188555050505b50505050505056fea2646970667358221220c9d2de433d93de7c21dfa98925644a5e9b1b53f92eec49ec399145583ae32d8064736f6c634300080f0033",
  "immutableReferences": {},
  "source": "// SPDX-License-Identifier: MIT\r\npragma solidity ^0.8.15;\r\n\r\ncontract StudentID {\r\n    //  :  \r\n    struct Student {\r\n        string id;\r\n        string name;\r\n        uint256 age;\r\n        uint256 class_of;\r\n        string gender;\r\n        bool isEnrolled;\r\n    }\r\n    \r\n    // :      \r\n    mapping(address => Student) public students;\r\n    \r\n    // :     \r\n    event StudentEnrolled(address indexed studentAddress, string id, string name, uint256 age, uint256 class_of, string gender);\r\n\r\n    // modifier:         modifier\r\n    modifier onlyUnenrolled() {\r\n        require(!students[msg.sender].isEnrolled, \"not.\");\r\n        _;\r\n    }\r\n\r\n    //   :    \r\n    function enrollStudent(string memory _id, string memory _name, uint256 _age, uint256 _class_of, string memory _gender) public onlyUnenrolled {\r\n        students[msg.sender] = Student(_id, _name, _age, _class_of, _gender, true);\r\n        emit StudentEnrolled(msg.sender, _id, _name, _age, _class_of, _gender);\r\n    }\r\n\r\n    //    :      \r\n    function getStudent(address studentAddress) public view returns (string memory, string memory, uint256, uint256, string memory, bool) {\r\n        return (students[studentAddress].id, students[studentAddress].name, students[studentAddress].age, \r\n        students[studentAddress].class_of, students[studentAddress].gender, students[studentAddress].isEnrolled);\r\n    }\r\n\r\n    function getStudentInfo(address studentAddress) public view returns (string memory, string memory, uint256, uint256, string memory) {\r\n        if (!students[studentAddress].isEnrolled) {\r\n            return (\"\", \"\", 0, 0, \"\");\r\n        }\r\n        return (students[studentAddress].id, students[studentAddress].name, students[studentAddress].age, students[studentAddress].class_of, students[studentAddress].gender);\r\n    }\r\n}",
  "sourcePath": "C:\\block_chain\\block-chain\\truffle\\contracts\\StudentID.sol",
  "compiler": {
    "name": "solc",
    "version": "0.8.15+commit.e14f2714.Emscripten.clang"
  },
  "schemaVersion": "3.4.16",
  "updatedAt": "2024-11-11T10:58:55.358Z",
  "networkType": "ethereum",
  "devdoc": {
    "kind": "dev",
    "methods": {},
    "version": 1
  },
  "userdoc": {
    "kind": "user",
    "methods": {},
    "version": 1
  }
}