{
  "contractName": "PaymentHold",
  "abi": [
    {
      "anonymous": false,
      "inputs": [
        {
          "indexed": true,
          "internalType": "address",
          "name": "payer",
          "type": "address"
        },
        {
          "indexed": true,
          "internalType": "address",
          "name": "payee",
          "type": "address"
        },
        {
          "indexed": false,
          "internalType": "uint256",
          "name": "amount",
          "type": "uint256"
        }
      ],
      "name": "PaymentCompleted",
      "type": "event"
    },
    {
      "anonymous": false,
      "inputs": [
        {
          "indexed": true,
          "internalType": "address",
          "name": "payer",
          "type": "address"
        },
        {
          "indexed": true,
          "internalType": "address",
          "name": "payee",
          "type": "address"
        }
      ],
      "name": "PaymentHeld",
      "type": "event"
    },
    {
      "anonymous": false,
      "inputs": [
        {
          "indexed": true,
          "internalType": "address",
          "name": "payer",
          "type": "address"
        },
        {
          "indexed": true,
          "internalType": "address",
          "name": "payee",
          "type": "address"
        },
        {
          "indexed": false,
          "internalType": "uint256",
          "name": "amount",
          "type": "uint256"
        },
        {
          "indexed": false,
          "internalType": "string",
          "name": "itemKey",
          "type": "string"
        },
        {
          "indexed": false,
          "internalType": "uint256",
          "name": "custNum",
          "type": "uint256"
        }
      ],
      "name": "PaymentInitiated",
      "type": "event"
    },
    {
      "anonymous": false,
      "inputs": [
        {
          "indexed": true,
          "internalType": "address",
          "name": "payer",
          "type": "address"
        },
        {
          "indexed": true,
          "internalType": "address",
          "name": "payee",
          "type": "address"
        }
      ],
      "name": "PaymentReleased",
      "type": "event"
    },
    {
      "anonymous": false,
      "inputs": [
        {
          "indexed": true,
          "internalType": "address",
          "name": "payer",
          "type": "address"
        },
        {
          "indexed": true,
          "internalType": "address",
          "name": "payee",
          "type": "address"
        },
        {
          "indexed": false,
          "internalType": "uint256",
          "name": "amount",
          "type": "uint256"
        }
      ],
      "name": "PaymentSent",
      "type": "event"
    },
    {
      "inputs": [
        {
          "internalType": "uint256",
          "name": "",
          "type": "uint256"
        }
      ],
      "name": "allPayers",
      "outputs": [
        {
          "internalType": "address",
          "name": "",
          "type": "address"
        }
      ],
      "stateMutability": "view",
      "type": "function",
      "constant": true
    },
    {
      "inputs": [
        {
          "internalType": "address",
          "name": "",
          "type": "address"
        },
        {
          "internalType": "address",
          "name": "",
          "type": "address"
        },
        {
          "internalType": "uint256",
          "name": "",
          "type": "uint256"
        }
      ],
      "name": "custNums",
      "outputs": [
        {
          "internalType": "uint256",
          "name": "",
          "type": "uint256"
        }
      ],
      "stateMutability": "view",
      "type": "function",
      "constant": true
    },
    {
      "inputs": [],
      "name": "holdPeriod",
      "outputs": [
        {
          "internalType": "uint256",
          "name": "",
          "type": "uint256"
        }
      ],
      "stateMutability": "view",
      "type": "function",
      "constant": true
    },
    {
      "inputs": [
        {
          "internalType": "address",
          "name": "",
          "type": "address"
        },
        {
          "internalType": "address",
          "name": "",
          "type": "address"
        },
        {
          "internalType": "uint256",
          "name": "",
          "type": "uint256"
        }
      ],
      "name": "itemKeys",
      "outputs": [
        {
          "internalType": "string",
          "name": "",
          "type": "string"
        }
      ],
      "stateMutability": "view",
      "type": "function",
      "constant": true
    },
    {
      "inputs": [
        {
          "internalType": "address",
          "name": "",
          "type": "address"
        },
        {
          "internalType": "uint256",
          "name": "",
          "type": "uint256"
        }
      ],
      "name": "payeesByPayer",
      "outputs": [
        {
          "internalType": "address",
          "name": "payer",
          "type": "address"
        },
        {
          "internalType": "address",
          "name": "payee",
          "type": "address"
        }
      ],
      "stateMutability": "view",
      "type": "function",
      "constant": true
    },
    {
      "inputs": [
        {
          "internalType": "address",
          "name": "",
          "type": "address"
        },
        {
          "internalType": "address",
          "name": "",
          "type": "address"
        }
      ],
      "name": "payments",
      "outputs": [
        {
          "internalType": "uint256",
          "name": "amount",
          "type": "uint256"
        },
        {
          "internalType": "uint256",
          "name": "timestamp",
          "type": "uint256"
        },
        {
          "internalType": "bool",
          "name": "sentByPayer",
          "type": "bool"
        },
        {
          "internalType": "uint256",
          "name": "custNum",
          "type": "uint256"
        },
        {
          "internalType": "bool",
          "name": "isHeld",
          "type": "bool"
        }
      ],
      "stateMutability": "view",
      "type": "function",
      "constant": true
    },
    {
      "inputs": [
        {
          "internalType": "address",
          "name": "",
          "type": "address"
        },
        {
          "internalType": "uint256",
          "name": "",
          "type": "uint256"
        }
      ],
      "name": "paymentsByPayee",
      "outputs": [
        {
          "internalType": "address",
          "name": "",
          "type": "address"
        }
      ],
      "stateMutability": "view",
      "type": "function",
      "constant": true
    },
    {
      "inputs": [
        {
          "internalType": "address",
          "name": "",
          "type": "address"
        }
      ],
      "name": "totalPaymentsByPayer",
      "outputs": [
        {
          "internalType": "uint256",
          "name": "",
          "type": "uint256"
        }
      ],
      "stateMutability": "view",
      "type": "function",
      "constant": true
    },
    {
      "inputs": [
        {
          "internalType": "address",
          "name": "",
          "type": "address"
        }
      ],
      "name": "totalpaymentsByPayee",
      "outputs": [
        {
          "internalType": "uint256",
          "name": "",
          "type": "uint256"
        }
      ],
      "stateMutability": "view",
      "type": "function",
      "constant": true
    },
    {
      "inputs": [
        {
          "internalType": "address",
          "name": "_payee",
          "type": "address"
        },
        {
          "internalType": "string",
          "name": "_itemKey",
          "type": "string"
        },
        {
          "internalType": "uint256",
          "name": "_custNum",
          "type": "uint256"
        }
      ],
      "name": "makePayment",
      "outputs": [],
      "stateMutability": "payable",
      "type": "function",
      "payable": true
    },
    {
      "inputs": [
        {
          "internalType": "address",
          "name": "_payer",
          "type": "address"
        },
        {
          "internalType": "address",
          "name": "_payee",
          "type": "address"
        }
      ],
      "name": "reportAndHoldPayment",
      "outputs": [],
      "stateMutability": "nonpayable",
      "type": "function"
    },
    {
      "inputs": [
        {
          "internalType": "address",
          "name": "_payer",
          "type": "address"
        },
        {
          "internalType": "address",
          "name": "_payee",
          "type": "address"
        }
      ],
      "name": "viewPaymentDetails",
      "outputs": [
        {
          "internalType": "uint256",
          "name": "",
          "type": "uint256"
        },
        {
          "internalType": "uint256",
          "name": "",
          "type": "uint256"
        },
        {
          "internalType": "bool",
          "name": "",
          "type": "bool"
        },
        {
          "internalType": "bool",
          "name": "",
          "type": "bool"
        },
        {
          "internalType": "uint256",
          "name": "",
          "type": "uint256"
        },
        {
          "internalType": "string",
          "name": "",
          "type": "string"
        }
      ],
      "stateMutability": "view",
      "type": "function",
      "constant": true
    },
    {
      "inputs": [],
      "name": "viewAllHeldPayments",
      "outputs": [
        {
          "components": [
            {
              "internalType": "address",
              "name": "payer",
              "type": "address"
            },
            {
              "internalType": "address",
              "name": "payee",
              "type": "address"
            }
          ],
          "internalType": "struct PaymentHold.PayeeInfo[]",
          "name": "",
          "type": "tuple[]"
        }
      ],
      "stateMutability": "view",
      "type": "function",
      "constant": true
    },
    {
      "inputs": [
        {
          "internalType": "address",
          "name": "wallet",
          "type": "address"
        }
      ],
      "name": "viewAllHeldPaymentsByWallet",
      "outputs": [
        {
          "components": [
            {
              "internalType": "address",
              "name": "payer",
              "type": "address"
            },
            {
              "internalType": "address",
              "name": "payee",
              "type": "address"
            }
          ],
          "internalType": "struct PaymentHold.PayeeInfo[]",
          "name": "",
          "type": "tuple[]"
        }
      ],
      "stateMutability": "view",
      "type": "function",
      "constant": true
    },
    {
      "inputs": [
        {
          "internalType": "address",
          "name": "_payer",
          "type": "address"
        },
        {
          "internalType": "address",
          "name": "_payee",
          "type": "address"
        }
      ],
      "name": "cancelPayment",
      "outputs": [],
      "stateMutability": "nonpayable",
      "type": "function"
    },
    {
      "inputs": [
        {
          "internalType": "address",
          "name": "_payer",
          "type": "address"
        },
        {
          "internalType": "address",
          "name": "_payee",
          "type": "address"
        }
      ],
      "name": "forceTransferPayment",
      "outputs": [],
      "stateMutability": "nonpayable",
      "type": "function"
    },
    {
      "inputs": [
        {
          "internalType": "address",
          "name": "_payee",
          "type": "address"
        }
      ],
      "name": "sendPayment",
      "outputs": [],
      "stateMutability": "nonpayable",
      "type": "function"
    },
    {
      "inputs": [
        {
          "internalType": "address",
          "name": "_payer",
          "type": "address"
        },
        {
          "internalType": "address",
          "name": "_payee",
          "type": "address"
        }
      ],
      "name": "receivePayment",
      "outputs": [],
      "stateMutability": "nonpayable",
      "type": "function"
    },
    {
      "inputs": [
        {
          "internalType": "address",
          "name": "_payer",
          "type": "address"
        },
        {
          "internalType": "address",
          "name": "_payee",
          "type": "address"
        }
      ],
      "name": "viewPendingPayment",
      "outputs": [
        {
          "internalType": "uint256",
          "name": "",
          "type": "uint256"
        }
      ],
      "stateMutability": "view",
      "type": "function",
      "constant": true
    },
    {
      "inputs": [
        {
          "internalType": "address",
          "name": "_payer",
          "type": "address"
        },
        {
          "internalType": "address",
          "name": "_payee",
          "type": "address"
        }
      ],
      "name": "viewPaymentTimestamp",
      "outputs": [
        {
          "internalType": "uint256",
          "name": "",
          "type": "uint256"
        }
      ],
      "stateMutability": "view",
      "type": "function",
      "constant": true
    },
    {
      "inputs": [
        {
          "internalType": "address",
          "name": "_payee",
          "type": "address"
        }
      ],
      "name": "viewPaymentsByPayee",
      "outputs": [
        {
          "internalType": "uint256",
          "name": "",
          "type": "uint256"
        }
      ],
      "stateMutability": "view",
      "type": "function",
      "constant": true
    },
    {
      "inputs": [
        {
          "internalType": "address",
          "name": "_wallet",
          "type": "address"
        }
      ],
      "name": "viewTotalPendingPaymentsSentByPayer",
      "outputs": [
        {
          "internalType": "uint256",
          "name": "",
          "type": "uint256"
        }
      ],
      "stateMutability": "view",
      "type": "function",
      "constant": true
    },
    {
      "inputs": [
        {
          "internalType": "address",
          "name": "_payer",
          "type": "address"
        }
      ],
      "name": "viewItemKeysPayer",
      "outputs": [
        {
          "internalType": "string[]",
          "name": "",
          "type": "string[]"
        }
      ],
      "stateMutability": "view",
      "type": "function",
      "constant": true
    },
    {
      "inputs": [
        {
          "internalType": "address",
          "name": "_payee",
          "type": "address"
        }
      ],
      "name": "viewItemKeysPayee",
      "outputs": [
        {
          "internalType": "string[]",
          "name": "",
          "type": "string[]"
        }
      ],
      "stateMutability": "view",
      "type": "function",
      "constant": true
    },
    {
      "inputs": [
        {
          "internalType": "address",
          "name": "_payee",
          "type": "address"
        }
      ],
      "name": "viewCustNumsPayee",
      "outputs": [
        {
          "internalType": "uint256[]",
          "name": "",
          "type": "uint256[]"
        }
      ],
      "stateMutability": "view",
      "type": "function",
      "constant": true
    },
    {
      "inputs": [
        {
          "internalType": "address",
          "name": "_payee",
          "type": "address"
        }
      ],
      "name": "viewCompletedPaymentsByPayee",
      "outputs": [
        {
          "internalType": "uint256",
          "name": "",
          "type": "uint256"
        }
      ],
      "stateMutability": "view",
      "type": "function",
      "constant": true
    }
  ],
  "bytecode": "0x608060405234801561001057600080fd5b50614fab806100206000396000f3fe6080604052600436106101815760003560e01c806388a3ef30116100d1578063cfc407331161008a578063dd0ea9b811610064578063dd0ea9b814610649578063e4511df714610686578063ea1eb909146106c3578063f5967a2f146106ee57610181565b8063cfc40733146105a6578063d5f90eab146105e3578063d676a6df1461062057610181565b806388a3ef30146104705780638a7644a8146104ad5780639e3f8009146104d6578063a0a8d55e14610517578063a215cf4e14610540578063b34a53f71461057d57610181565b8063366ff3bc1161013e5780636e429659116101185780636e42965914610376578063716a5b8f146103b45780637899ac67146103f65780637d260b541461043357610181565b8063366ff3bc146102f4578063579928c4146103315780635a8d52761461034d57610181565b80630d160a20146101865780631d061d9f146101c35780632714b52e146102005780632740d4d51461023d5780633070a3c41461027a57806333b93d5f146102b7575b600080fd5b34801561019257600080fd5b506101ad60048036038101906101a89190613db9565b610719565b6040516101ba9190613f41565b60405180910390f35b3480156101cf57600080fd5b506101ea60048036038101906101e59190613db9565b610b57565b6040516101f79190613f7c565b60405180910390f35b34801561020c57600080fd5b5061022760048036038101906102229190613f97565b610d49565b6040516102349190613f7c565b60405180910390f35b34801561024957600080fd5b50610264600480360381019061025f9190614003565b610dd2565b60405161027191906140a0565b60405180910390f35b34801561028657600080fd5b506102a1600480360381019061029c91906140c2565b610e98565b6040516102ae9190614111565b60405180910390f35b3480156102c357600080fd5b506102de60048036038101906102d99190613f97565b610ee6565b6040516102eb9190613f7c565b60405180910390f35b34801561030057600080fd5b5061031b60048036038101906103169190613db9565b610f6f565b6040516103289190613f7c565b60405180910390f35b61034b60048036038101906103469190614261565b610f87565b005b34801561035957600080fd5b50610374600480360381019061036f9190613f97565b6115c6565b005b34801561038257600080fd5b5061039d600480360381019061039891906140c2565b61175a565b6040516103ab9291906142d0565b60405180910390f35b3480156103c057600080fd5b506103db60048036038101906103d69190613f97565b6117db565b6040516103ed96959493929190614314565b60405180910390f35b34801561040257600080fd5b5061041d6004803603810190610418919061437c565b611aec565b60405161042a9190614111565b60405180910390f35b34801561043f57600080fd5b5061045a60048036038101906104559190613db9565b611b2b565b6040516104679190613f7c565b60405180910390f35b34801561047c57600080fd5b5061049760048036038101906104929190613db9565b611b43565b6040516104a49190614496565b60405180910390f35b3480156104b957600080fd5b506104d460048036038101906104cf9190613db9565b612466565b005b3480156104e257600080fd5b506104fd60048036038101906104f89190613f97565b61265f565b60405161050e9594939291906144b8565b60405180910390f35b34801561052357600080fd5b5061053e60048036038101906105399190613f97565b6126bc565b005b34801561054c57600080fd5b5061056760048036038101906105629190613db9565b6128be565b6040516105749190613f41565b60405180910390f35b34801561058957600080fd5b506105a4600480360381019061059f9190613f97565b612cd2565b005b3480156105b257600080fd5b506105cd60048036038101906105c89190613db9565b612f0a565b6040516105da91906145c9565b60405180910390f35b3480156105ef57600080fd5b5061060a60048036038101906106059190613db9565b6131f2565b6040516106179190613f7c565b60405180910390f35b34801561062c57600080fd5b5061064760048036038101906106429190613f97565b61323b565b005b34801561065557600080fd5b50610670600480360381019061066b9190614003565b613517565b60405161067d9190613f7c565b60405180910390f35b34801561069257600080fd5b506106ad60048036038101906106a89190613db9565b613555565b6040516106ba9190613f7c565b60405180910390f35b3480156106cf57600080fd5b506106d8613703565b6040516106e59190614496565b60405180910390f35b3480156106fa57600080fd5b50610703613cfc565b6040516107109190613f7c565b60405180910390f35b6060600080600360008573ffffffffffffffffffffffffffffffffffffffff1673ffffffffffffffffffffffffffffffffffffffff1681526020019081526020016000208054905067ffffffffffffffff81111561077a57610779614136565b5b6040519080825280602002602001820160405280156107a85781602001602082028036833780820191505090505b50905060005b815181101561094157600360008673ffffffffffffffffffffffffffffffffffffffff1673ffffffffffffffffffffffffffffffffffffffff1681526020019081526020016000208181548110610808576108076145eb565b5b906000526020600020906002020160010160009054906101000a900473ffffffffffffffffffffffffffffffffffffffff1682828151811061084d5761084c6145eb565b5b602002602001019073ffffffffffffffffffffffffffffffffffffffff16908173ffffffffffffffffffffffffffffffffffffffff1681525050600560008673ffffffffffffffffffffffffffffffffffffffff1673ffffffffffffffffffffffffffffffffffffffff16815260200190815260200160002060008383815181106108db576108da6145eb565b5b602002602001015173ffffffffffffffffffffffffffffffffffffffff1673ffffffffffffffffffffffffffffffffffffffff168152602001908152602001600020805490508361092c9190614649565b925080806109399061469f565b9150506107ae565b5060008267ffffffffffffffff81111561095e5761095d614136565b5b60405190808252806020026020018201604052801561099157816020015b606081526020019060019003908161097c5790505b5090506000805b8351811015610b4a5760008482815181106109b6576109b56145eb565b5b602002602001015190506000600560008a73ffffffffffffffffffffffffffffffffffffffff1673ffffffffffffffffffffffffffffffffffffffff16815260200190815260200160002060008373ffffffffffffffffffffffffffffffffffffffff1673ffffffffffffffffffffffffffffffffffffffff168152602001908152602001600020905060005b8180549050811015610b3457818181548110610a6257610a616145eb565b5b906000526020600020018054610a7790614716565b80601f0160208091040260200160405190810160405280929190818152602001828054610aa390614716565b8015610af05780601f10610ac557610100808354040283529160200191610af0565b820191906000526020600020905b815481529060010190602001808311610ad357829003601f168201915b5050505050868681518110610b0857610b076145eb565b5b60200260200101819052508480610b1e9061469f565b9550508080610b2c9061469f565b915050610a43565b5050508080610b429061469f565b915050610998565b5081945050505050919050565b6000806000905060005b600360008573ffffffffffffffffffffffffffffffffffffffff1673ffffffffffffffffffffffffffffffffffffffff16815260200190815260200160002080549050811015610d3f5760008060008673ffffffffffffffffffffffffffffffffffffffff1673ffffffffffffffffffffffffffffffffffffffff1681526020019081526020016000206000600360008873ffffffffffffffffffffffffffffffffffffffff1673ffffffffffffffffffffffffffffffffffffffff1681526020019081526020016000208481548110610c3e57610c3d6145eb565b5b906000526020600020906002020160010160009054906101000a900473ffffffffffffffffffffffffffffffffffffffff1673ffffffffffffffffffffffffffffffffffffffff1673ffffffffffffffffffffffffffffffffffffffff1681526020019081526020016000206040518060a001604052908160008201548152602001600182015481526020016002820160009054906101000a900460ff16151515158152602001600382015481526020016004820160009054906101000a900460ff1615151515815250509050600081600001511115610d2b57806000015183610d289190614649565b92505b508080610d379061469f565b915050610b61565b5080915050919050565b60008060008473ffffffffffffffffffffffffffffffffffffffff1673ffffffffffffffffffffffffffffffffffffffff16815260200190815260200160002060008373ffffffffffffffffffffffffffffffffffffffff1673ffffffffffffffffffffffffffffffffffffffff16815260200190815260200160002060010154905092915050565b60056020528260005260406000206020528160005260406000208181548110610dfa57600080fd5b9060005260206000200160009250925050508054610e1790614716565b80601f0160208091040260200160405190810160405280929190818152602001828054610e4390614716565b8015610e905780601f10610e6557610100808354040283529160200191610e90565b820191906000526020600020905b815481529060010190602001808311610e7357829003601f168201915b505050505081565b60046020528160005260406000208181548110610eb457600080fd5b906000526020600020016000915091509054906101000a900473ffffffffffffffffffffffffffffffffffffffff1681565b60008060008473ffffffffffffffffffffffffffffffffffffffff1673ffffffffffffffffffffffffffffffffffffffff16815260200190815260200160002060008373ffffffffffffffffffffffffffffffffffffffff1673ffffffffffffffffffffffffffffffffffffffff16815260200190815260200160002060000154905092915050565b60026020528060005260406000206000915090505481565b60003411610fca576040517f08c379a0000000000000000000000000000000000000000000000000000000008152600401610fc1906147b9565b60405180910390fd5b6000600360003373ffffffffffffffffffffffffffffffffffffffff1673ffffffffffffffffffffffffffffffffffffffff1681526020019081526020016000208054905003611078576007339080600181540180825580915050600190039060005260206000200160009091909190916101000a81548173ffffffffffffffffffffffffffffffffffffffff021916908373ffffffffffffffffffffffffffffffffffffffff1602179055505b6040518060a00160405280348152602001428152602001600015158152602001828152602001600015158152506000803373ffffffffffffffffffffffffffffffffffffffff1673ffffffffffffffffffffffffffffffffffffffff16815260200190815260200160002060008573ffffffffffffffffffffffffffffffffffffffff1673ffffffffffffffffffffffffffffffffffffffff168152602001908152602001600020600082015181600001556020820151816001015560408201518160020160006101000a81548160ff0219169083151502179055506060820151816003015560808201518160040160006101000a81548160ff021916908315150217905550905050600360003373ffffffffffffffffffffffffffffffffffffffff1673ffffffffffffffffffffffffffffffffffffffff16815260200190815260200160002060405180604001604052803373ffffffffffffffffffffffffffffffffffffffff1681526020018573ffffffffffffffffffffffffffffffffffffffff16815250908060018154018082558091505060019003906000526020600020906002020160009091909190915060008201518160000160006101000a81548173ffffffffffffffffffffffffffffffffffffffff021916908373ffffffffffffffffffffffffffffffffffffffff16021790555060208201518160010160006101000a81548173ffffffffffffffffffffffffffffffffffffffff021916908373ffffffffffffffffffffffffffffffffffffffff1602179055505050600460008473ffffffffffffffffffffffffffffffffffffffff1673ffffffffffffffffffffffffffffffffffffffff168152602001908152602001600020339080600181540180825580915050600190039060005260206000200160009091909190916101000a81548173ffffffffffffffffffffffffffffffffffffffff021916908373ffffffffffffffffffffffffffffffffffffffff16021790555034600260003373ffffffffffffffffffffffffffffffffffffffff1673ffffffffffffffffffffffffffffffffffffffff16815260200190815260200160002060008282546113a99190614649565b9250508190555034600160008573ffffffffffffffffffffffffffffffffffffffff1673ffffffffffffffffffffffffffffffffffffffff16815260200190815260200160002060008282546113ff9190614649565b92505081905550600560003373ffffffffffffffffffffffffffffffffffffffff1673ffffffffffffffffffffffffffffffffffffffff16815260200190815260200160002060008473ffffffffffffffffffffffffffffffffffffffff1673ffffffffffffffffffffffffffffffffffffffff168152602001908152602001600020829080600181540180825580915050600190039060005260206000200160009091909190915090816114b49190614985565b50600660003373ffffffffffffffffffffffffffffffffffffffff1673ffffffffffffffffffffffffffffffffffffffff16815260200190815260200160002060008473ffffffffffffffffffffffffffffffffffffffff1673ffffffffffffffffffffffffffffffffffffffff1681526020019081526020016000208190806001815401808255809150506001900390600052602060002001600090919091909150558273ffffffffffffffffffffffffffffffffffffffff163373ffffffffffffffffffffffffffffffffffffffff167f1937b818e70039d0d214dd47daa1152ff4b16d3e6dcb9d1c5f6717ddba7ea2703485856040516115b993929190614a57565b60405180910390a3505050565b60008060008473ffffffffffffffffffffffffffffffffffffffff1673ffffffffffffffffffffffffffffffffffffffff16815260200190815260200160002060008373ffffffffffffffffffffffffffffffffffffffff1673ffffffffffffffffffffffffffffffffffffffff1681526020019081526020016000209050600081600001541161168c576040517f08c379a000000000000000000000000000000000000000000000000000000000815260040161168390614ae1565b60405180910390fd5b8060040160009054906101000a900460ff166116dd576040517f08c379a00000000000000000000000000000000000000000000000000000000081526004016116d490614b4d565b60405180910390fd5b6000816000015490506000826000018190555060008260040160006101000a81548160ff0219169083151502179055508273ffffffffffffffffffffffffffffffffffffffff166108fc829081150290604051600060405180830381858888f19350505050158015611753573d6000803e3d6000fd5b5050505050565b6003602052816000526040600020818154811061177657600080fd5b9060005260206000209060020201600091509150508060000160009054906101000a900473ffffffffffffffffffffffffffffffffffffffff16908060010160009054906101000a900473ffffffffffffffffffffffffffffffffffffffff16905082565b6000806000806000606060008060008a73ffffffffffffffffffffffffffffffffffffffff1673ffffffffffffffffffffffffffffffffffffffff16815260200190815260200160002060008973ffffffffffffffffffffffffffffffffffffffff1673ffffffffffffffffffffffffffffffffffffffff1681526020019081526020016000206040518060a001604052908160008201548152602001600182015481526020016002820160009054906101000a900460ff16151515158152602001600382015481526020016004820160009054906101000a900460ff1615151515815250509050600081600001511161190a576040517f08c379a000000000000000000000000000000000000000000000000000000000815260040161190190614bb9565b60405180910390fd5b6000600560008b73ffffffffffffffffffffffffffffffffffffffff1673ffffffffffffffffffffffffffffffffffffffff16815260200190815260200160002060008a73ffffffffffffffffffffffffffffffffffffffff1673ffffffffffffffffffffffffffffffffffffffff1681526020019081526020016000206001600560008d73ffffffffffffffffffffffffffffffffffffffff1673ffffffffffffffffffffffffffffffffffffffff16815260200190815260200160002060008c73ffffffffffffffffffffffffffffffffffffffff1673ffffffffffffffffffffffffffffffffffffffff16815260200190815260200160002080549050611a149190614bd9565b81548110611a2557611a246145eb565b5b906000526020600020018054611a3a90614716565b80601f0160208091040260200160405190810160405280929190818152602001828054611a6690614716565b8015611ab35780601f10611a8857610100808354040283529160200191611ab3565b820191906000526020600020905b815481529060010190602001808311611a9657829003601f168201915b50505050509050816000015182602001518360400151846080015185606001518597509750975097509750975050509295509295509295565b60078181548110611afc57600080fd5b906000526020600020016000915054906101000a900473ffffffffffffffffffffffffffffffffffffffff1681565b60016020528060005260406000206000915090505481565b60606000805b600360008573ffffffffffffffffffffffffffffffffffffffff1673ffffffffffffffffffffffffffffffffffffffff16815260200190815260200160002080549050811015611cc8576000808573ffffffffffffffffffffffffffffffffffffffff1673ffffffffffffffffffffffffffffffffffffffff1681526020019081526020016000206000600360008773ffffffffffffffffffffffffffffffffffffffff1673ffffffffffffffffffffffffffffffffffffffff1681526020019081526020016000208381548110611c2457611c236145eb565b5b906000526020600020906002020160010160009054906101000a900473ffffffffffffffffffffffffffffffffffffffff1673ffffffffffffffffffffffffffffffffffffffff1673ffffffffffffffffffffffffffffffffffffffff16815260200190815260200160002060040160009054906101000a900460ff1615611cb5578180611cb19061469f565b9250505b8080611cc09061469f565b915050611b49565b5060005b600460008573ffffffffffffffffffffffffffffffffffffffff1673ffffffffffffffffffffffffffffffffffffffff16815260200190815260200160002080549050811015611e4457600080600460008773ffffffffffffffffffffffffffffffffffffffff1673ffffffffffffffffffffffffffffffffffffffff1681526020019081526020016000208381548110611d6a57611d696145eb565b5b9060005260206000200160009054906101000a900473ffffffffffffffffffffffffffffffffffffffff1673ffffffffffffffffffffffffffffffffffffffff1673ffffffffffffffffffffffffffffffffffffffff16815260200190815260200160002060008573ffffffffffffffffffffffffffffffffffffffff1673ffffffffffffffffffffffffffffffffffffffff16815260200190815260200160002060040160009054906101000a900460ff1615611e31578180611e2d9061469f565b9250505b8080611e3c9061469f565b915050611ccc565b5060008167ffffffffffffffff811115611e6157611e60614136565b5b604051908082528060200260200182016040528015611e9a57816020015b611e87613d01565b815260200190600190039081611e7f5790505b5090506000805b600360008773ffffffffffffffffffffffffffffffffffffffff1673ffffffffffffffffffffffffffffffffffffffff168152602001908152602001600020805490508110156121ac5760008060008873ffffffffffffffffffffffffffffffffffffffff1673ffffffffffffffffffffffffffffffffffffffff1681526020019081526020016000206000600360008a73ffffffffffffffffffffffffffffffffffffffff1673ffffffffffffffffffffffffffffffffffffffff1681526020019081526020016000208481548110611f7e57611f7d6145eb565b5b906000526020600020906002020160010160009054906101000a900473ffffffffffffffffffffffffffffffffffffffff1673ffffffffffffffffffffffffffffffffffffffff1673ffffffffffffffffffffffffffffffffffffffff1681526020019081526020016000206040518060a001604052908160008201548152602001600182015481526020016002820160009054906101000a900460ff16151515158152602001600382015481526020016004820160009054906101000a900460ff161515151581525050905080608001511561219857600360008873ffffffffffffffffffffffffffffffffffffffff1673ffffffffffffffffffffffffffffffffffffffff16815260200190815260200160002082815481106120a6576120a56145eb565b5b90600052602060002090600202016040518060400160405290816000820160009054906101000a900473ffffffffffffffffffffffffffffffffffffffff1673ffffffffffffffffffffffffffffffffffffffff1673ffffffffffffffffffffffffffffffffffffffff1681526020016001820160009054906101000a900473ffffffffffffffffffffffffffffffffffffffff1673ffffffffffffffffffffffffffffffffffffffff1673ffffffffffffffffffffffffffffffffffffffff168152505084848151811061217e5761217d6145eb565b5b602002602001018190525082806121949061469f565b9350505b5080806121a49061469f565b915050611ea1565b5060005b600460008773ffffffffffffffffffffffffffffffffffffffff1673ffffffffffffffffffffffffffffffffffffffff1681526020019081526020016000208054905081101561245a576000806000600460008a73ffffffffffffffffffffffffffffffffffffffff1673ffffffffffffffffffffffffffffffffffffffff16815260200190815260200160002084815481106122505761224f6145eb565b5b9060005260206000200160009054906101000a900473ffffffffffffffffffffffffffffffffffffffff1673ffffffffffffffffffffffffffffffffffffffff1673ffffffffffffffffffffffffffffffffffffffff16815260200190815260200160002060008873ffffffffffffffffffffffffffffffffffffffff1673ffffffffffffffffffffffffffffffffffffffff1681526020019081526020016000206040518060a001604052908160008201548152602001600182015481526020016002820160009054906101000a900460ff16151515158152602001600382015481526020016004820160009054906101000a900460ff1615151515815250509050806080015115612446576040518060400160405280600460008a73ffffffffffffffffffffffffffffffffffffffff1673ffffffffffffffffffffffffffffffffffffffff16815260200190815260200160002084815481106123b9576123b86145eb565b5b9060005260206000200160009054906101000a900473ffffffffffffffffffffffffffffffffffffffff1673ffffffffffffffffffffffffffffffffffffffff1681526020018873ffffffffffffffffffffffffffffffffffffffff1681525084848151811061242c5761242b6145eb565b5b602002602001018190525082806124429061469f565b9350505b5080806124529061469f565b9150506121b0565b50819350505050919050565b60008060003373ffffffffffffffffffffffffffffffffffffffff1673ffffffffffffffffffffffffffffffffffffffff16815260200190815260200160002060008373ffffffffffffffffffffffffffffffffffffffff1673ffffffffffffffffffffffffffffffffffffffff1681526020019081526020016000209050600081600001541161252c576040517f08c379a000000000000000000000000000000000000000000000000000000000815260040161252390614ae1565b60405180910390fd5b601e816001015461253d9190614649565b421061257e576040517f08c379a000000000000000000000000000000000000000000000000000000000815260040161257590614c59565b60405180910390fd5b6000816000015490506000826000018190555060018260020160006101000a81548160ff0219169083151502179055508273ffffffffffffffffffffffffffffffffffffffff166108fc829081150290604051600060405180830381858888f193505050501580156125f4573d6000803e3d6000fd5b508273ffffffffffffffffffffffffffffffffffffffff163373ffffffffffffffffffffffffffffffffffffffff167fd52bd61f7c422d441e024604f4517878fd3305d6acf0fe37baef23ed21af6bc9836040516126529190613f7c565b60405180910390a3505050565b6000602052816000526040600020602052806000526040600020600091509150508060000154908060010154908060020160009054906101000a900460ff16908060030154908060040160009054906101000a900460ff16905085565b60008060008473ffffffffffffffffffffffffffffffffffffffff1673ffffffffffffffffffffffffffffffffffffffff16815260200190815260200160002060008373ffffffffffffffffffffffffffffffffffffffff1673ffffffffffffffffffffffffffffffffffffffff16815260200190815260200160002090506000816000015411612782576040517f08c379a000000000000000000000000000000000000000000000000000000000815260040161277990614ae1565b60405180910390fd5b8060040160009054906101000a900460ff166127d3576040517f08c379a00000000000000000000000000000000000000000000000000000000081526004016127ca90614b4d565b60405180910390fd5b8273ffffffffffffffffffffffffffffffffffffffff163373ffffffffffffffffffffffffffffffffffffffff1614612841576040517f08c379a000000000000000000000000000000000000000000000000000000000815260040161283890614ceb565b60405180910390fd5b6000816000015490506000826000018190555060008260040160006101000a81548160ff0219169083151502179055508373ffffffffffffffffffffffffffffffffffffffff166108fc829081150290604051600060405180830381858888f193505050501580156128b7573d6000803e3d6000fd5b5050505050565b60606000600460008473ffffffffffffffffffffffffffffffffffffffff1673ffffffffffffffffffffffffffffffffffffffff16815260200190815260200160002080548060200260200160405190810160405280929190818152602001828054801561298157602002820191906000526020600020905b8160009054906101000a900473ffffffffffffffffffffffffffffffffffffffff1673ffffffffffffffffffffffffffffffffffffffff1681526020019060010190808311612937575b505050505090506000610100905060008167ffffffffffffffff8111156129ab576129aa614136565b5b6040519080825280602002602001820160405280156129de57816020015b60608152602001906001900390816129c95790505b5090506000805b8451811015612c1a57600060056000878481518110612a0757612a066145eb565b5b602002602001015173ffffffffffffffffffffffffffffffffffffffff1673ffffffffffffffffffffffffffffffffffffffff16815260200190815260200160002060008973ffffffffffffffffffffffffffffffffffffffff1673ffffffffffffffffffffffffffffffffffffffff168152602001908152602001600020905060005b8180549050811015612c05576000805b85811015612b1857838381548110612ab657612ab56145eb565b5b90600052602060002001604051612acd9190614dae565b6040518091039020878281518110612ae857612ae76145eb565b5b60200260200101518051906020012003612b055760019150612b18565b8080612b109061469f565b915050612a9b565b5080612bf157828281548110612b3157612b306145eb565b5b906000526020600020018054612b4690614716565b80601f0160208091040260200160405190810160405280929190818152602001828054612b7290614716565b8015612bbf5780601f10612b9457610100808354040283529160200191612bbf565b820191906000526020600020905b815481529060010190602001808311612ba257829003601f168201915b5050505050868681518110612bd757612bd66145eb565b5b60200260200101819052508480612bed9061469f565b9550505b508080612bfd9061469f565b915050612a8b565b50508080612c129061469f565b9150506129e5565b5060008167ffffffffffffffff811115612c3757612c36614136565b5b604051908082528060200260200182016040528015612c6a57816020015b6060815260200190600190039081612c555790505b50905060005b82811015612cc457838181518110612c8b57612c8a6145eb565b5b6020026020010151828281518110612ca657612ca56145eb565b5b60200260200101819052508080612cbc9061469f565b915050612c70565b508095505050505050919050565b60008060008473ffffffffffffffffffffffffffffffffffffffff1673ffffffffffffffffffffffffffffffffffffffff16815260200190815260200160002060008373ffffffffffffffffffffffffffffffffffffffff1673ffffffffffffffffffffffffffffffffffffffff16815260200190815260200160002090506000816000015411612d98576040517f08c379a0000000000000000000000000000000000000000000000000000000008152600401612d8f90614ae1565b60405180910390fd5b8273ffffffffffffffffffffffffffffffffffffffff163373ffffffffffffffffffffffffffffffffffffffff161480612dfd57508173ffffffffffffffffffffffffffffffffffffffff163373ffffffffffffffffffffffffffffffffffffffff16145b612e3c576040517f08c379a0000000000000000000000000000000000000000000000000000000008152600401612e3390614e11565b60405180910390fd5b8060040160009054906101000a900460ff1615612e8e576040517f08c379a0000000000000000000000000000000000000000000000000000000008152600401612e8590614e7d565b60405180910390fd5b60018160040160006101000a81548160ff0219169083151502179055508173ffffffffffffffffffffffffffffffffffffffff168373ffffffffffffffffffffffffffffffffffffffff167f474380e2d70f1b1641c90421309da183f38844bf8fda822a4d69ba43177eec7d60405160405180910390a3505050565b6060600080600460008573ffffffffffffffffffffffffffffffffffffffff1673ffffffffffffffffffffffffffffffffffffffff168152602001908152602001600020905060005b8180549050811015613042576000828281548110612f7457612f736145eb565b5b9060005260206000200160009054906101000a900473ffffffffffffffffffffffffffffffffffffffff169050600660008273ffffffffffffffffffffffffffffffffffffffff1673ffffffffffffffffffffffffffffffffffffffff16815260200190815260200160002060008773ffffffffffffffffffffffffffffffffffffffff1673ffffffffffffffffffffffffffffffffffffffff168152602001908152602001600020805490508461302c9190614649565b935050808061303a9061469f565b915050612f53565b5060008267ffffffffffffffff81111561305f5761305e614136565b5b60405190808252806020026020018201604052801561308d5781602001602082028036833780820191505090505b5090506000805b83805490508110156131e55760008482815481106130b5576130b46145eb565b5b9060005260206000200160009054906101000a900473ffffffffffffffffffffffffffffffffffffffff1690506000600660008373ffffffffffffffffffffffffffffffffffffffff1673ffffffffffffffffffffffffffffffffffffffff16815260200190815260200160002060008a73ffffffffffffffffffffffffffffffffffffffff1673ffffffffffffffffffffffffffffffffffffffff168152602001908152602001600020905060005b81805490508110156131cf57818181548110613184576131836145eb565b5b90600052602060002001548686815181106131a2576131a16145eb565b5b60200260200101818152505084806131b99061469f565b95505080806131c79061469f565b915050613165565b50505080806131dd9061469f565b915050613094565b5081945050505050919050565b6000600160008373ffffffffffffffffffffffffffffffffffffffff1673ffffffffffffffffffffffffffffffffffffffff168152602001908152602001600020549050919050565b60008060008473ffffffffffffffffffffffffffffffffffffffff1673ffffffffffffffffffffffffffffffffffffffff16815260200190815260200160002060008373ffffffffffffffffffffffffffffffffffffffff1673ffffffffffffffffffffffffffffffffffffffff16815260200190815260200160002090506000816000015411613301576040517f08c379a00000000000000000000000000000000000000000000000000000000081526004016132f890614ae1565b60405180910390fd5b601e81600101546133129190614649565b421015613354576040517f08c379a000000000000000000000000000000000000000000000000000000000815260040161334b90614ee9565b60405180910390fd5b8060040160009054906101000a900460ff16156133a6576040517f08c379a000000000000000000000000000000000000000000000000000000000815260040161339d90614f55565b60405180910390fd5b600081600001549050600082600001819055508273ffffffffffffffffffffffffffffffffffffffff166108fc829081150290604051600060405180830381858888f193505050501580156133ff573d6000803e3d6000fd5b5080600260008673ffffffffffffffffffffffffffffffffffffffff1673ffffffffffffffffffffffffffffffffffffffff168152602001908152602001600020600082825461344f9190614bd9565b9250508190555080600160008573ffffffffffffffffffffffffffffffffffffffff1673ffffffffffffffffffffffffffffffffffffffff16815260200190815260200160002060008282546134a59190614bd9565b925050819055508273ffffffffffffffffffffffffffffffffffffffff168473ffffffffffffffffffffffffffffffffffffffff167f4faa73af1070617e98c55683d83a7f09b573f16d1145719f80e3142455f09ca5836040516135099190613f7c565b60405180910390a350505050565b6006602052826000526040600020602052816000526040600020818154811061353f57600080fd5b9060005260206000200160009250925050505481565b6000806000905060005b600460008573ffffffffffffffffffffffffffffffffffffffff1673ffffffffffffffffffffffffffffffffffffffff168152602001908152602001600020805490508110156136f9576000600460008673ffffffffffffffffffffffffffffffffffffffff1673ffffffffffffffffffffffffffffffffffffffff16815260200190815260200160002082815481106135fc576135fb6145eb565b5b9060005260206000200160009054906101000a900473ffffffffffffffffffffffffffffffffffffffff16905060008060008373ffffffffffffffffffffffffffffffffffffffff1673ffffffffffffffffffffffffffffffffffffffff16815260200190815260200160002060008773ffffffffffffffffffffffffffffffffffffffff1673ffffffffffffffffffffffffffffffffffffffff1681526020019081526020016000209050600081600001541180156136cc5750601e81600101546136c89190614649565b4210155b156136e4578060000154846136e19190614649565b93505b505080806136f19061469f565b91505061355f565b5080915050919050565b60606000805b6007805490508110156139545760006007828154811061372c5761372b6145eb565b5b9060005260206000200160009054906101000a900473ffffffffffffffffffffffffffffffffffffffff1690506000600360008373ffffffffffffffffffffffffffffffffffffffff1673ffffffffffffffffffffffffffffffffffffffff168152602001908152602001600020905060005b818054905081101561393e5760008060008484815481106137c3576137c26145eb565b5b906000526020600020906002020160000160009054906101000a900473ffffffffffffffffffffffffffffffffffffffff1673ffffffffffffffffffffffffffffffffffffffff1673ffffffffffffffffffffffffffffffffffffffff1681526020019081526020016000206000848481548110613844576138436145eb565b5b906000526020600020906002020160010160009054906101000a900473ffffffffffffffffffffffffffffffffffffffff1673ffffffffffffffffffffffffffffffffffffffff1673ffffffffffffffffffffffffffffffffffffffff1681526020019081526020016000206040518060a001604052908160008201548152602001600182015481526020016002820160009054906101000a900460ff16151515158152602001600382015481526020016004820160009054906101000a900460ff161515151581525050905080608001511561392a5785806139269061469f565b9650505b5080806139369061469f565b91505061379f565b505050808061394c9061469f565b915050613709565b5060008167ffffffffffffffff81111561397157613970614136565b5b6040519080825280602002602001820160405280156139aa57816020015b613997613d01565b81526020019060019003908161398f5790505b5090506000805b600780549050811015613cf2576000600782815481106139d4576139d36145eb565b5b9060005260206000200160009054906101000a900473ffffffffffffffffffffffffffffffffffffffff1690506000600360008373ffffffffffffffffffffffffffffffffffffffff1673ffffffffffffffffffffffffffffffffffffffff168152602001908152602001600020905060005b8180549050811015613cdc576000806000848481548110613a6b57613a6a6145eb565b5b906000526020600020906002020160000160009054906101000a900473ffffffffffffffffffffffffffffffffffffffff1673ffffffffffffffffffffffffffffffffffffffff1673ffffffffffffffffffffffffffffffffffffffff1681526020019081526020016000206000848481548110613aec57613aeb6145eb565b5b906000526020600020906002020160010160009054906101000a900473ffffffffffffffffffffffffffffffffffffffff1673ffffffffffffffffffffffffffffffffffffffff1673ffffffffffffffffffffffffffffffffffffffff1681526020019081526020016000206040518060a001604052908160008201548152602001600182015481526020016002820160009054906101000a900460ff16151515158152602001600382015481526020016004820160009054906101000a900460ff1615151515815250509050806080015115613cc857828281548110613bd657613bd56145eb565b5b90600052602060002090600202016040518060400160405290816000820160009054906101000a900473ffffffffffffffffffffffffffffffffffffffff1673ffffffffffffffffffffffffffffffffffffffff1673ffffffffffffffffffffffffffffffffffffffff1681526020016001820160009054906101000a900473ffffffffffffffffffffffffffffffffffffffff1673ffffffffffffffffffffffffffffffffffffffff1673ffffffffffffffffffffffffffffffffffffffff1681525050878781518110613cae57613cad6145eb565b5b60200260200101819052508580613cc49061469f565b9650505b508080613cd49061469f565b915050613a47565b5050508080613cea9061469f565b9150506139b1565b5081935050505090565b601e81565b6040518060400160405280600073ffffffffffffffffffffffffffffffffffffffff168152602001600073ffffffffffffffffffffffffffffffffffffffff1681525090565b6000604051905090565b600080fd5b600080fd5b600073ffffffffffffffffffffffffffffffffffffffff82169050919050565b6000613d8682613d5b565b9050919050565b613d9681613d7b565b8114613da157600080fd5b50565b600081359050613db381613d8d565b92915050565b600060208284031215613dcf57613dce613d51565b5b6000613ddd84828501613da4565b91505092915050565b600081519050919050565b600082825260208201905092915050565b6000819050602082019050919050565b600081519050919050565b600082825260208201905092915050565b60005b83811015613e4c578082015181840152602081019050613e31565b83811115613e5b576000848401525b50505050565b6000601f19601f8301169050919050565b6000613e7d82613e12565b613e878185613e1d565b9350613e97818560208601613e2e565b613ea081613e61565b840191505092915050565b6000613eb78383613e72565b905092915050565b6000602082019050919050565b6000613ed782613de6565b613ee18185613df1565b935083602082028501613ef385613e02565b8060005b85811015613f2f5784840389528151613f108582613eab565b9450613f1b83613ebf565b925060208a01995050600181019050613ef7565b50829750879550505050505092915050565b60006020820190508181036000830152613f5b8184613ecc565b905092915050565b6000819050919050565b613f7681613f63565b82525050565b6000602082019050613f916000830184613f6d565b92915050565b60008060408385031215613fae57613fad613d51565b5b6000613fbc85828601613da4565b9250506020613fcd85828601613da4565b9150509250929050565b613fe081613f63565b8114613feb57600080fd5b50565b600081359050613ffd81613fd7565b92915050565b60008060006060848603121561401c5761401b613d51565b5b600061402a86828701613da4565b935050602061403b86828701613da4565b925050604061404c86828701613fee565b9150509250925092565b600082825260208201905092915050565b600061407282613e12565b61407c8185614056565b935061408c818560208601613e2e565b61409581613e61565b840191505092915050565b600060208201905081810360008301526140ba8184614067565b905092915050565b600080604083850312156140d9576140d8613d51565b5b60006140e785828601613da4565b92505060206140f885828601613fee565b9150509250929050565b61410b81613d7b565b82525050565b60006020820190506141266000830184614102565b92915050565b600080fd5b600080fd5b7f4e487b7100000000000000000000000000000000000000000000000000000000600052604160045260246000fd5b61416e82613e61565b810181811067ffffffffffffffff8211171561418d5761418c614136565b5b80604052505050565b60006141a0613d47565b90506141ac8282614165565b919050565b600067ffffffffffffffff8211156141cc576141cb614136565b5b6141d582613e61565b9050602081019050919050565b82818337600083830152505050565b60006142046141ff846141b1565b614196565b9050828152602081018484840111156142205761421f614131565b5b61422b8482856141e2565b509392505050565b600082601f8301126142485761424761412c565b5b81356142588482602086016141f1565b91505092915050565b60008060006060848603121561427a57614279613d51565b5b600061428886828701613da4565b935050602084013567ffffffffffffffff8111156142a9576142a8613d56565b5b6142b586828701614233565b92505060406142c686828701613fee565b9150509250925092565b60006040820190506142e56000830185614102565b6142f26020830184614102565b9392505050565b60008115159050919050565b61430e816142f9565b82525050565b600060c0820190506143296000830189613f6d565b6143366020830188613f6d565b6143436040830187614305565b6143506060830186614305565b61435d6080830185613f6d565b81810360a083015261436f8184614067565b9050979650505050505050565b60006020828403121561439257614391613d51565b5b60006143a084828501613fee565b91505092915050565b600081519050919050565b600082825260208201905092915050565b6000819050602082019050919050565b6143de81613d7b565b82525050565b6040820160008201516143fa60008501826143d5565b50602082015161440d60208501826143d5565b50505050565b600061441f83836143e4565b60408301905092915050565b6000602082019050919050565b6000614443826143a9565b61444d81856143b4565b9350614458836143c5565b8060005b838110156144895781516144708882614413565b975061447b8361442b565b92505060018101905061445c565b5085935050505092915050565b600060208201905081810360008301526144b08184614438565b905092915050565b600060a0820190506144cd6000830188613f6d565b6144da6020830187613f6d565b6144e76040830186614305565b6144f46060830185613f6d565b6145016080830184614305565b9695505050505050565b600081519050919050565b600082825260208201905092915050565b6000819050602082019050919050565b61454081613f63565b82525050565b60006145528383614537565b60208301905092915050565b6000602082019050919050565b60006145768261450b565b6145808185614516565b935061458b83614527565b8060005b838110156145bc5781516145a38882614546565b97506145ae8361455e565b92505060018101905061458f565b5085935050505092915050565b600060208201905081810360008301526145e3818461456b565b905092915050565b7f4e487b7100000000000000000000000000000000000000000000000000000000600052603260045260246000fd5b7f4e487b7100000000000000000000000000000000000000000000000000000000600052601160045260246000fd5b600061465482613f63565b915061465f83613f63565b9250827fffffffffffffffffffffffffffffffffffffffffffffffffffffffffffffffff038211156146945761469361461a565b5b828201905092915050565b60006146aa82613f63565b91507fffffffffffffffffffffffffffffffffffffffffffffffffffffffffffffffff82036146dc576146db61461a565b5b600182019050919050565b7f4e487b7100000000000000000000000000000000000000000000000000000000600052602260045260246000fd5b6000600282049050600182168061472e57607f821691505b602082108103614741576147406146e7565b5b50919050565b7f5061796d656e7420616d6f756e74206d7573742062652067726561746572207460008201527f68616e2030000000000000000000000000000000000000000000000000000000602082015250565b60006147a3602583614056565b91506147ae82614747565b604082019050919050565b600060208201905081810360008301526147d281614796565b9050919050565b60008190508160005260206000209050919050565b60006020601f8301049050919050565b600082821b905092915050565b60006008830261483b7fffffffffffffffffffffffffffffffffffffffffffffffffffffffffffffffff826147fe565b61484586836147fe565b95508019841693508086168417925050509392505050565b6000819050919050565b600061488261487d61487884613f63565b61485d565b613f63565b9050919050565b6000819050919050565b61489c83614867565b6148b06148a882614889565b84845461480b565b825550505050565b600090565b6148c56148b8565b6148d0818484614893565b505050565b5b818110156148f4576148e96000826148bd565b6001810190506148d6565b5050565b601f8211156149395761490a816147d9565b614913846147ee565b81016020851015614922578190505b61493661492e856147ee565b8301826148d5565b50505b505050565b600082821c905092915050565b600061495c6000198460080261493e565b1980831691505092915050565b6000614975838361494b565b9150826002028217905092915050565b61498e82613e12565b67ffffffffffffffff8111156149a7576149a6614136565b5b6149b18254614716565b6149bc8282856148f8565b600060209050601f8311600181146149ef57600084156149dd578287015190505b6149e78582614969565b865550614a4f565b601f1984166149fd866147d9565b60005b82811015614a2557848901518255600182019150602085019450602081019050614a00565b86831015614a425784890151614a3e601f89168261494b565b8355505b6001600288020188555050505b505050505050565b6000606082019050614a6c6000830186613f6d565b8181036020830152614a7e8185614067565b9050614a8d6040830184613f6d565b949350505050565b7f4e6f2070656e64696e67207061796d656e740000000000000000000000000000600082015250565b6000614acb601283614056565b9150614ad682614a95565b602082019050919050565b60006020820190508181036000830152614afa81614abe565b9050919050565b7f5061796d656e74206973206e6f74206f6e20686f6c6400000000000000000000600082015250565b6000614b37601683614056565b9150614b4282614b01565b602082019050919050565b60006020820190508181036000830152614b6681614b2a565b9050919050565b7f4e6f207061796d656e7420666f756e6400000000000000000000000000000000600082015250565b6000614ba3601083614056565b9150614bae82614b6d565b602082019050919050565b60006020820190508181036000830152614bd281614b96565b9050919050565b6000614be482613f63565b9150614bef83613f63565b925082821015614c0257614c0161461a565b5b828203905092915050565b7f486f6c6420706572696f64206f76657200000000000000000000000000000000600082015250565b6000614c43601083614056565b9150614c4e82614c0d565b602082019050919050565b60006020820190508181036000830152614c7281614c36565b9050919050565b7f4f6e6c792070617965722063616e2063616e63656c20746865207061796d656e60008201527f7400000000000000000000000000000000000000000000000000000000000000602082015250565b6000614cd5602183614056565b9150614ce082614c79565b604082019050919050565b60006020820190508181036000830152614d0481614cc8565b9050919050565b600081905092915050565b60008190508160005260206000209050919050565b60008154614d3881614716565b614d428186614d0b565b94506001821660008114614d5d5760018114614d7257614da5565b60ff1983168652811515820286019350614da5565b614d7b85614d16565b60005b83811015614d9d57815481890152600182019150602081019050614d7e565b838801955050505b50505092915050565b6000614dba8284614d2b565b915081905092915050565b7f4f6e6c79207061796572206f722070617965652063616e207265706f72740000600082015250565b6000614dfb601e83614056565b9150614e0682614dc5565b602082019050919050565b60006020820190508181036000830152614e2a81614dee565b9050919050565b7f5061796d656e7420697320616c7265616479206f6e20686f6c64000000000000600082015250565b6000614e67601a83614056565b9150614e7282614e31565b602082019050919050565b60006020820190508181036000830152614e9681614e5a565b9050919050565b7f486f6c6420706572696f64206e6f74206f766572207965740000000000000000600082015250565b6000614ed3601883614056565b9150614ede82614e9d565b602082019050919050565b60006020820190508181036000830152614f0281614ec6565b9050919050565b7f5061796d656e74206973206f6e20686f6c640000000000000000000000000000600082015250565b6000614f3f601283614056565b9150614f4a82614f09565b602082019050919050565b60006020820190508181036000830152614f6e81614f32565b905091905056fea2646970667358221220e979789142d0d0ade8f9955034bc0ecd8b6815e876584bc094a7648eff65104164736f6c634300080f0033",
  "immutableReferences": {},
  "source": "// SPDX-License-Identifier: MIT\r\npragma solidity ^0.8.15;\r\n\r\ncontract PaymentHold {\r\n    struct Payment {\r\n        uint amount;\r\n        uint timestamp;\r\n        bool sentByPayer;\r\n        uint custNum;\r\n        bool isHeld; //  \r\n    }\r\n\r\n    struct PayeeInfo {\r\n        address payer;\r\n        address payee;\r\n    }\r\n    \r\n    mapping(address => mapping(address => Payment)) public payments; //     \r\n    mapping(address => uint) public totalpaymentsByPayee;\r\n    mapping(address => uint) public totalPaymentsByPayer;\r\n    mapping(address => PayeeInfo[]) public payeesByPayer;\r\n    mapping(address => address[]) public paymentsByPayee;\r\n    mapping(address => mapping(address => string[])) public itemKeys;\r\n    mapping(address => mapping(address => uint[])) public custNums;\r\n\r\n    address[] public allPayers; //    \r\n\r\n    //uint public constant holdPeriod = 7 days; //     (: 7)\r\n    uint public constant holdPeriod = 30 seconds;\r\n\r\n    //mapping(bytes32 => bool) private seenKeys; //    storage \r\n\r\n    event PaymentInitiated(address indexed payer, address indexed payee, uint amount, string itemKey, uint custNum);\r\n    event PaymentSent(address indexed payer, address indexed payee, uint amount);\r\n    event PaymentCompleted(address indexed payer, address indexed payee, uint amount);\r\n    event PaymentHeld(address indexed payer, address indexed payee); //    \r\n    event PaymentReleased(address indexed payer, address indexed payee); //   \r\n\r\n    //       \r\n    function makePayment(address _payee, string memory _itemKey, uint _custNum) external payable {\r\n        require(msg.value > 0, \"Payment amount must be greater than 0\");\r\n\r\n        if (payeesByPayer[msg.sender].length == 0) {\r\n            allPayers.push(msg.sender); //      allPayers \r\n        }\r\n\r\n        payments[msg.sender][_payee] = Payment({\r\n            amount: msg.value,\r\n            timestamp: block.timestamp,\r\n            sentByPayer: false,\r\n            custNum: _custNum,\r\n            isHeld: false\r\n        });\r\n\r\n        payeesByPayer[msg.sender].push(PayeeInfo({payer: msg.sender, payee: _payee}));\r\n        paymentsByPayee[_payee].push(msg.sender);\r\n        totalPaymentsByPayer[msg.sender] += msg.value;\r\n        totalpaymentsByPayee[_payee] += msg.value;\r\n        itemKeys[msg.sender][_payee].push(_itemKey);\r\n        custNums[msg.sender][_payee].push(_custNum);\r\n\r\n        emit PaymentInitiated(msg.sender, _payee, msg.value, _itemKey, _custNum);\r\n    }\r\n\r\n    //     \r\n    function reportAndHoldPayment(address _payer, address _payee) external {\r\n        Payment storage payment = payments[_payer][_payee];\r\n        require(payment.amount > 0, \"No pending payment\");\r\n        require(msg.sender == _payer || msg.sender == _payee, \"Only payer or payee can report\");\r\n        require(!payment.isHeld, \"Payment is already on hold\");\r\n\r\n        payment.isHeld = true; //   \r\n        emit PaymentHeld(_payer, _payee);\r\n    }\r\n\r\n    // //      (  )\r\n    // function releasePayment(address _payer, address _payee) external onlyAdmin {\r\n    //     Payment storage payment = payments[_payer][_payee];\r\n    //     require(payment.isHeld, \"Payment is not on hold\");\r\n    //     payment.isHeld = false; //   \r\n    //     emit PaymentReleased(_payer, _payee);\r\n    // }\r\n\r\n    //      \r\n    function viewPaymentDetails(address _payer, address _payee) external view returns (uint, uint, bool, bool, uint, string memory) {\r\n    Payment memory payment = payments[_payer][_payee];\r\n    require(payment.amount > 0, \"No payment found\");\r\n\r\n    // itemKey  (payee  payer itemKeys    )\r\n    string memory itemKey = itemKeys[_payer][_payee][itemKeys[_payer][_payee].length - 1];\r\n\r\n    return (payment.amount, payment.timestamp, payment.sentByPayer, payment.isHeld, payment.custNum, itemKey);\r\n}\r\n\r\n    //       (    )\r\n    function viewAllHeldPayments() external view returns (PayeeInfo[] memory) {\r\n        uint heldCount = 0;\r\n\r\n        //    \r\n        for (uint i = 0; i < allPayers.length; i++) {\r\n            address payer = allPayers[i];\r\n            PayeeInfo[] storage payeeInfos = payeesByPayer[payer];\r\n            \r\n            for (uint j = 0; j < payeeInfos.length; j++) {\r\n                Payment memory payment = payments[payeeInfos[j].payer][payeeInfos[j].payee];\r\n                if (payment.isHeld) {\r\n                    heldCount++;\r\n                }\r\n            }\r\n        }\r\n\r\n        PayeeInfo[] memory heldPayments = new PayeeInfo[](heldCount);\r\n        uint index = 0;\r\n\r\n        //   \r\n        for (uint i = 0; i < allPayers.length; i++) {\r\n            address payer = allPayers[i];\r\n            PayeeInfo[] storage payeeInfos = payeesByPayer[payer];\r\n            \r\n            for (uint j = 0; j < payeeInfos.length; j++) {\r\n                Payment memory payment = payments[payeeInfos[j].payer][payeeInfos[j].payee];\r\n                if (payment.isHeld) {\r\n                    heldPayments[index] = payeeInfos[j];\r\n                    index++;\r\n                }\r\n            }\r\n        }\r\n\r\n        return heldPayments;\r\n    }\r\n\r\n    //        \r\n    function viewAllHeldPaymentsByWallet(address wallet) external view returns (PayeeInfo[] memory) {\r\n        uint heldCount = 0;\r\n\r\n        //      \r\n        for (uint i = 0; i < payeesByPayer[wallet].length; i++) {\r\n            if (payments[wallet][payeesByPayer[wallet][i].payee].isHeld) {\r\n                heldCount++;\r\n            }\r\n        }\r\n\r\n        //      \r\n        for (uint i = 0; i < paymentsByPayee[wallet].length; i++) {\r\n            if (payments[paymentsByPayee[wallet][i]][wallet].isHeld) {\r\n                heldCount++;\r\n            }\r\n        }\r\n\r\n        PayeeInfo[] memory heldPayments = new PayeeInfo[](heldCount);\r\n        uint index = 0;\r\n\r\n        //     \r\n        for (uint i = 0; i < payeesByPayer[wallet].length; i++) {\r\n            Payment memory payment = payments[wallet][payeesByPayer[wallet][i].payee];\r\n            if (payment.isHeld) {\r\n                heldPayments[index] = payeesByPayer[wallet][i];\r\n                index++;\r\n            }\r\n        }\r\n\r\n        //     \r\n        for (uint i = 0; i < paymentsByPayee[wallet].length; i++) {\r\n            Payment memory payment = payments[paymentsByPayee[wallet][i]][wallet];\r\n            if (payment.isHeld) {\r\n                heldPayments[index] = PayeeInfo(paymentsByPayee[wallet][i], wallet);\r\n                index++;\r\n            }\r\n        }\r\n        return heldPayments;\r\n    }\r\n\r\n    //      \r\n    function cancelPayment(address _payer, address _payee) external {\r\n        Payment storage payment = payments[_payer][_payee];\r\n        require(payment.amount > 0, \"No pending payment\");\r\n        require(payment.isHeld, \"Payment is not on hold\");\r\n        require(msg.sender == _payer, \"Only payer can cancel the payment\");\r\n\r\n        uint amount = payment.amount;\r\n        payment.amount = 0; //  \r\n        payment.isHeld = false; //   \r\n\r\n        payable(_payer).transfer(amount); //  \r\n    }\r\n\r\n    //      ( )\r\n    function forceTransferPayment(address _payer, address _payee) external {\r\n        Payment storage payment = payments[_payer][_payee];\r\n        require(payment.amount > 0, \"No pending payment\");\r\n        require(payment.isHeld, \"Payment is not on hold\");\r\n\r\n        uint amount = payment.amount;\r\n        payment.amount = 0; //  \r\n        payment.isHeld = false; //   \r\n\r\n        payable(_payee).transfer(amount); //  \r\n    }\r\n\r\n    //     \r\n    function sendPayment(address _payee) external {\r\n        Payment storage payment = payments[msg.sender][_payee];\r\n        require(payment.amount > 0, \"No pending payment\");\r\n        require(block.timestamp < payment.timestamp + holdPeriod, \"Hold period over\");\r\n\r\n        uint amount = payment.amount;\r\n        payment.amount = 0;\r\n        payment.sentByPayer = true;\r\n        payable(_payee).transfer(amount);\r\n\r\n        emit PaymentSent(msg.sender, _payee, amount);\r\n    }\r\n\r\n    //        \r\n    function receivePayment(address _payer, address _payee) external {\r\n        Payment storage payment = payments[_payer][_payee];\r\n        require(payment.amount > 0, \"No pending payment\");\r\n        require(block.timestamp >= payment.timestamp + holdPeriod, \"Hold period not over yet\");\r\n        require(!payment.isHeld, \"Payment is on hold\"); //   \r\n\r\n        uint amount = payment.amount;\r\n        payment.amount = 0;\r\n\r\n        // Transfer the payment amount to the payee\r\n        payable(_payee).transfer(amount);\r\n\r\n        totalPaymentsByPayer[_payer] -= amount;\r\n        totalpaymentsByPayee[_payee] -= amount;\r\n\r\n        emit PaymentCompleted(_payer, _payee, amount);\r\n    }\r\n\r\n    //        \r\n    function viewPendingPayment(address _payer, address _payee) external view returns (uint) {\r\n        return payments[_payer][_payee].amount;\r\n    }\r\n\r\n    //        \r\n    function viewPaymentTimestamp(address _payer, address _payee) external view returns (uint) {\r\n        return payments[_payer][_payee].timestamp;\r\n    }\r\n\r\n    //     \r\n    function viewPaymentsByPayee(address _payee) external view returns (uint) {\r\n        return totalpaymentsByPayee[_payee];\r\n    }\r\n\r\n    //      \r\n    //           \r\n    function viewTotalPendingPaymentsSentByPayer(address _wallet) external view returns (uint) {\r\n        uint totalPendingAmount = 0;\r\n\r\n        // _wallet        \r\n        for (uint i = 0; i < payeesByPayer[_wallet].length; i++) {\r\n            Payment memory payment = payments[_wallet][payeesByPayer[_wallet][i].payee];\r\n            if (payment.amount > 0) {\r\n                totalPendingAmount += payment.amount;\r\n            }\r\n        }\r\n\r\n        return totalPendingAmount;\r\n    }\r\n\r\n    //     itemKey \r\n    function viewItemKeysPayer(address _payer) external view returns (string[] memory) {\r\n        uint itemCount = 0;\r\n        address[] memory payees = new address[](payeesByPayer[_payer].length);\r\n        for (uint i = 0; i < payees.length; i++) {\r\n            payees[i] = payeesByPayer[_payer][i].payee;\r\n            itemCount += itemKeys[_payer][payees[i]].length;\r\n        }\r\n        string[] memory keys = new string[](itemCount);\r\n        uint index = 0;\r\n        for (uint i = 0; i < payees.length; i++) {\r\n            address payee = payees[i];\r\n            string[] storage payeeKeys = itemKeys[_payer][payee];\r\n            for (uint j = 0; j < payeeKeys.length; j++) {\r\n                keys[index] = payeeKeys[j];\r\n                index++;\r\n            }\r\n        }\r\n        return keys;\r\n    }\r\n\r\n    //     itemKey \r\n    function viewItemKeysPayee(address _payee) external view returns (string[] memory) {\r\n        address[] memory payers = paymentsByPayee[_payee];\r\n\r\n        //     ,   \r\n        uint maxItems = 256; //    \r\n        string[] memory tempKeys = new string[](maxItems);\r\n        uint index = 0;\r\n\r\n        for (uint i = 0; i < payers.length; i++) {\r\n            string[] storage payerKeys = itemKeys[payers[i]][_payee];\r\n\r\n            for (uint j = 0; j < payerKeys.length; j++) {\r\n                bool exists = false;\r\n\r\n                //  :  tempKeys   key  \r\n                for (uint k = 0; k < index; k++) {\r\n                    if (keccak256(bytes(tempKeys[k])) == keccak256(bytes(payerKeys[j]))) {\r\n                        exists = true;\r\n                        break;\r\n                    }\r\n                }\r\n\r\n                //   \r\n                if (!exists) {\r\n                    tempKeys[index] = payerKeys[j];\r\n                    index++;\r\n                }\r\n            }\r\n        }\r\n\r\n        //     \r\n        string[] memory uniqueKeys = new string[](index);\r\n        for (uint i = 0; i < index; i++) {\r\n            uniqueKeys[i] = tempKeys[i];\r\n        }\r\n\r\n        return uniqueKeys;\r\n    }\r\n\r\n    //    custNum \r\n    function viewCustNumsPayee(address _payee) external view returns (uint[] memory) {\r\n        uint itemCount = 0;\r\n        address[] storage payers = paymentsByPayee[_payee];\r\n        for (uint i = 0; i < payers.length; i++) {\r\n            address payer = payers[i];\r\n            itemCount += custNums[payer][_payee].length;\r\n        }\r\n        uint[] memory nums = new uint[](itemCount);\r\n        uint index = 0;\r\n        for (uint i = 0; i < payers.length; i++) {\r\n            address payer = payers[i];\r\n            uint[] storage payerNums = custNums[payer][_payee];\r\n            for (uint j = 0; j < payerNums.length; j++) {\r\n                nums[index] = payerNums[j];\r\n                index++;\r\n            }\r\n        }\r\n        return nums;\r\n    }\r\n\r\n    //    \r\n    function viewCompletedPaymentsByPayee(address _payee) external view returns (uint) {\r\n        uint completedPayments = 0;\r\n        for (uint i = 0; i < paymentsByPayee[_payee].length; i++) {\r\n            address payer = paymentsByPayee[_payee][i];\r\n            Payment storage payment = payments[payer][_payee];\r\n            if (payment.amount > 0 && block.timestamp >= payment.timestamp + holdPeriod) {\r\n                completedPayments += payment.amount;\r\n            }\r\n        }\r\n        return completedPayments;\r\n    }\r\n}",
  "sourcePath": "C:\\block_chain\\block-chain\\truffle\\contracts\\PaymentHold.sol",
  "compiler": {
    "name": "solc",
    "version": "0.8.15+commit.e14f2714.Emscripten.clang"
  },
  "schemaVersion": "3.4.16",
  "updatedAt": "2024-11-11T10:48:49.882Z",
  "networkType": "ethereum",
  "devdoc": {
    "kind": "dev",
    "methods": {},
    "version": 1
  },
  "userdoc": {
    "kind": "user",
    "methods": {},
    "version": 1
  }
}